:020000040800F2
:100000000805002001010008CF020008C70200080F
:10001000CB02000875010008E30A00080000000098
:100020000000000000000000000000001D060008A5
:1000300079010008000000004103000809070008DA
:100040001B0100081B0100081B0100081B01000820
:100050001B0100081B0100081B0100081B01000810
:100060001B0100081B0100081B0100081B01000800
:100070001B0100081B0100081B0100081B010008F0
:100080001B0100081B0100081B0100081B010008E0
:100090001B0100081B0100081B0100081B010008D0
:1000A0001B0100081B0100081B0100081B010008C0
:1000B0001B0100081B0100081B0100081B010008B0
:1000C0001B0100081B0100081B0100081B010008A0
:1000D0001B010008F90700081B0100081B010008AC
:1000E0001B0100081B0100081B010008DFF80CD0F1
:1000F00000F02EF800480047B11300080805002062
:100100000648804706480047FEE7FEE7FEE7FEE7B1
:10011000FEE7FEE7FEE7FEE7FEE7FEE799070008D9
:10012000ED00000830B50B460146002020220124D6
:1001300009E021FA02F59D4205D303FA02F5491BB5
:1001400004FA02F52844151EA2F10102F1DC30BDCB
:10015000064C074D06E0E06840F0010394E8070014
:1001600098471034AC42F6D3FFF7C4FFCC17000811
:10017000EC17000800BFFEE770472DE9F04102468A
:1001800000250026002000230024002791F803C04A
:100190000CF00F0591F803C00CF0100CBCF1000F2F
:1001A00003D091F802C04CEA050591F800C0BCF1FB
:1001B000000F31D0146800202BE04FF0010C0CFA36
:1001C00000F3B1F800C00CEA03069E4220D1830080
:1001D0004FF00F0C0CFA03F7BC4305FA03FC4CEA92
:1001E000040491F803C0BCF1280F06D14FF0010CB4
:1001F0000CFA00FCC2F814C00AE091F803C0BCF18C
:10020000480F05D14FF0010C0CFA00FCC2F810C0E9
:10021000401C0828D1D31460B1F800C0BCF1FF0F16
:1002200034DD546800202EE000F1080C4FF0010886
:1002300008FA0CF3B1F800C00CEA03069E4221D183
:1002400083004FF00F0C0CFA03F7BC4305FA03FCD4
:100250004CEA040491F803C0BCF1280F05D100F169
:10026000080C08FA0CF8C2F8148091F803C0BCF12D
:10027000480F07D100F1080C4FF0010808FA0CF8FC
:10028000C2F81080401C0828CED35460BDE8F0812D
:100290000246002093680B400BB1012000E00020D3
:1002A000704702460020D3680B400BB1012000E0EC
:1002B0000020704741617047016170470AB10161D8
:1002C00000E04161704700BFFEE700BFFEE77047F6
:1002D00070B5002100230F22C47804B3154C2468A4
:1002E00004F4E064C4F5E064210AC1F10403CA40E7
:1002F000447804FA03F184781440214309010E4C38
:100300000678A155047804F01F050124AC40057857
:100310006D11AD0005F1E025C5F8004109E0047854
:1003200004F01F050124AC40044D0678761145F811
:10033000264070BD0CED00E000E400E080E100E04C
:100340007047000029B1064A12690243044B1A6142
:1003500004E0034A12698243014B1A6170470000AE
:100360000010024029B1064A92690243044B9A6187
:1003700004E0034A92698243014B9A61704700008E
:100380000010024029B1064AD2680243044BDA60E9
:1003900004E0034AD2688243014BDA6070470000F0
:1003A000001002400F48006840F001000D4908604D
:1003B000084640680C4908400A49486008460068F9
:1003C0000A490840074908600846006820F4802070
:1003D00008600846406820F4FE0048604FF41F00A3
:1003E00088607047001002400000FFF8FFFFF6FE33
:1003F00030B500210022002400232D4D6D6805F04A
:100400000C0121B1042905D0082923D105E0294D8B
:10041000056022E0274D05601FE0254D6D6805F45D
:100420007012234D6D6805F48034022505EB92426D
:100430001CB9214D554305600BE01D4D6D6805F459
:1004400000351DB11C4D5543056002E0194D554363
:10045000056002E0174D056000BF00BF144D6D68D8
:1004600005F0F0010909154D6B5C0568DD4045603C
:100470000F4D6D6805F4E061090A104D6B5C45682D
:10048000DD4085600A4D6D6805F46051C90A0B4D69
:100490006B5C4568DD40C560054D6D6805F4404105
:1004A000890B074D6B5CC568B5FBF3F5056130BD85
:1004B0000010024000127A0000093D0018000020E0
:1004C0002800002010B501460022002300204A1118
:1004D000012A02D1094C236806E0022A02D1074C06
:1004E000236A01E0054C636A01F01F020124944075
:1004F0001C400CB1012000E0002010BD00100240A3
:100500000248406800F00C007047000000100240F4
:1005100001460020034A506820F0F0000843506074
:1005200070470000001002401149096821F4803131
:100530000F4A11601146096821F480211160B0F55D
:10054000803F03D0B0F5802F0ED106E0084909683E
:1005500041F48031064A116007E00549096841F419
:10056000A021034A116000E000BF00BF70470000F7
:100570000010024001460020034A506820F4E06069
:100580000843506070470000001002400146002000
:10059000034A506820F4605040EAC1005060704740
:1005A0000010024001490866704700000000424206
:1005B00002460020044B586820F47C1042EA0103F4
:1005C0001843014B5860704700100240014600205C
:1005D000034A506820F00300084350607047000051
:1005E0000010024038B5002000900024002500BF14
:1005F0003120FFF767FF05460098401C00900098E7
:10060000B0F5A06F01D0002DF2D03120FFF75AFFD6
:1006100008B1012400E00024204638BD704710B521
:1006200000F002F810BD00000CB500200190009011
:100630003348006840F480303149086000BF3048DA
:10064000006800F4003000900198401C0190009870
:1006500018B90198B0F5A06FF1D12948006800F4ED
:10066000003010B10120009001E0002000900098BF
:10067000012843D12348006840F010002149086058
:100680000846006820F0030008600846006840F053
:10069000020008601A4840681949486008464068E6
:1006A00048600846406840F48060486008464068FA
:1006B00020F47C1048600846406840F4E810486028
:1006C0000846006840F08070086000BF0C48006871
:1006D00000F000700028F9D00948406820F00300BD
:1006E000074948600846406840F00200486000BF83
:1006F0000348406800F00C000828F9D10CBD000048
:10070000001002400020024010B509480068401C5B
:100710000749086007480078401C064908700846E9
:1007200000780A2803DB0020087000F0B7FD10BD38
:10073000080000200C00002030B5144800684FF479
:100740007A72B0FBF2F1B1F1807F00D31DE021F0AD
:100750007F40401E4FF0E022506150170F220028CA
:1007600007DA13071D0E0A4B00F00F04241F1D5556
:1007700003E013071C0E074B1C5400BF00204FF072
:10078000E02290610720106100BF30BD2C000020E6
:1007900018ED00E000E400E010B51348006840F0F8
:1007A00001001149086008464068104908400E4998
:1007B0004860084600680E4908400B490860084632
:1007C000006820F4802008600846406820F4FE009D
:1007D00048604FF41F008860FFF721FF4FF0006072
:1007E0000449086010BD0000001002400000FFF83E
:1007F000FFFFF6FE08ED00E010B540F2255120485D
:1008000000F0AEF8002839D040F225511C4800F025
:100810003DF81B4800F060F9C4B2194800F05CF9DB
:10082000C4B21848008800F4004038BB212C14D111
:100830001448008840F400401249088008460088A7
:10084000C0F30D0010490C5400210E480088C0F37D
:100850000D00401C0C4A115410E00A480088C0F3F7
:100860000D0009490C5407480088401C05490880C0
:10087000084600887F2801DD0020088010BD0000A8
:1008800000380140160000204400002010B500226E
:10089000002340F66A14A14200D100BF0A120124CD
:1008A0009440A3B2DC43048010BD21B1828942F49C
:1008B0000052828104E082894DF6FF731A408281E2
:1008C0007047000010B504462048844209D1012138
:1008D0008803FFF757FD00214FF48040FFF752FDDA
:1008E00032E01B48844209D101214804FFF72AFD68
:1008F00000214FF40030FFF725FD25E01548844224
:1009000009D101218804FFF71DFD00214FF480204B
:10091000FFF718FD18E01048844209D10121C804EE
:10092000FFF710FD00214FF40020FFF70BFD0BE057
:100930000A48844208D101210805FFF703FD002180
:100940004FF48010FFF7FEFC10BD0000003801409E
:100950000044004000480040004C0040005000406F
:1009600070B50246002400230025002040F66A16D8
:10097000B14200D100BFC1F3421501F01F030126AF
:1009800006FA03F3012D02D19689334006E0022DC9
:1009900002D1168A334001E0968A33400C120126B8
:1009A00006FA04F41688344013B10CB1012000E0BB
:1009B000002070BDF0B5034600240026002500206D
:1009C00040F66A17B94200D100BF1846C1F342147D
:1009D00001F01F06012707FA06F5012C01D10C30A2
:1009E00004E0022C01D1103000E014301AB1076885
:1009F0002F43076002E00768AF430760F0BD0000C7
:100A00002DE9F04786B005460E460024A24600BFF9
:100A1000A1460027B08900B100BF2F462C8A4CF6B2
:100A2000FF700440F08804432C82AC894EF6F3102A
:100A30000440B08831890843718908430443AC817C
:100A4000AC8A4FF6FF400440B0890443AC8201A851
:100A5000FFF7CEFC1F48874202D1DDF810A001E06D
:100A6000DDF80CA0A88900F4004040B10AEBCA00F0
:100A700000EB0A1031684900B0FBF1F807E00AEB1F
:100A8000CA0000EB0A1031688900B0FBF1F864205D
:100A9000B8FBF0F004012009642101FB1089A8894A
:100AA00000F4004040B1322000EBC900B0FBF1F08F
:100AB00000F00700044308E0322000EB0910642135
:100AC000B0FBF1F000F00F0004432C8106B0BDE84C
:100AD000F08700000038014001468888C0F3080014
:100AE000704700BFFEE700000FB4054B10B503A927
:100AF000044A029800F018F810BC5DF814FB0000DE
:100B0000451200084000002002E008C8121F08C17A
:100B1000002AFAD170477047002001E001C1121F7E
:100B2000002AFBD1704700002DE9FF4F8BB09A4699
:100B30000F460546002606E025280BD052460D99A3
:100B400090476D1C761C28780028F5D10FB03046F0
:100B5000BDE8F08F0024A0460122604900E0044374
:100B600015F8013F203B02FA03F00842F7D128783C
:100B70002E2817D115F8010F44F004042A280ED0AE
:100B80006FF02F022878A0F1300109290AD808EB6C
:100B9000880102EB410100EB01086D1CF2E757F8F8
:100BA000048B6D1C287869283ED006DC0028CDD047
:100BB00063280BD0642804D136E0732810D0752840
:100BC0004BD052460D999047761C85E017F8040BE0
:100BD0008DF8000000208DF80100E946012003E0B7
:100BE00057F8049B4FF0FF3061074FF0000401D429
:100BF0000AE0641C44450DDA8442FADB19F804105B
:100C00000029F6D106E0641C8442FCDB19F80410CC
:100C10000029F8D1264404E019F8010B52460D9939
:100C20009047641EF8D257E001CF4FF00A0B00281E
:100C300002DA40422D2102E0210504D52B218DF856
:100C40002410012103E0E10705D02021F7E70DF191
:100C5000200908910CE00021F9E701CF4FF00A0BC1
:100C6000F9E75946FFF75EFA01F1300209F8012D64
:100C70000028F6D1ADEB090000F1200B600701D48C
:100C80004FF00108D84502DDA8EB0B0000E0002082
:100C90008046002406E009A85246005D0D99904761
:100CA000641C761C08988442F5DB04E03020524630
:100CB0000D999047761CB8F10001A8F10108F5DC08
:100CC00005E019F8010B52460D999047761CBBF1CF
:100CD0000001ABF1010BF4DC6D1C34E709280100C5
:100CE00010B500F04FFB00F073FA00F0B9FA4FF4C2
:100CF00000510448FFF7E0FA20210248FFF7DAFA32
:100D000010BD0000000C014010B51548007888B1F6
:100D100013480078012806D100201149087011A05D
:100D2000FFF7E2FE06E00E480078022802D112A08A
:100D3000FFF7DAFE1548007888B1144800780128DA
:100D400006D100201149087011A0FFF7CDFE06E082
:100D50000E480078022802D112A0FFF7C5FE10BD90
:100D60000E0000206B6579315F7072657373696E78
:100D700067203D20310D0A006B6579315F70726527
:100D80007373696E67203D20320D0A000F0000204A
:100D90006B6579325F7072657373696E67203D2091
:100DA000310D0A006B6579325F7072657373696E1D
:100DB00067203D20320D0A0010B500F00FFB0C49F2
:100DC0000968401AB0F57A7F11D900F007FB08498D
:100DD00008604FF400510748FFF763FAC0F10100C3
:100DE000C4B222464FF400510248FFF767FA10BD23
:100DF00000000020000C014010B500F0F5FA10BD15
:100E000010B500F0EBFA57490968401A32284CD95E
:100E100000F0E4FA5349086000F05CFB524890F897
:100E20002000002841D05048807B002837D04E4811
:100E3000B0F914004C49B1F91C10884205D04A4859
:100E4000B0F9141049A0FFF74FFE4748B0F916005B
:100E50004549B1F91E10884205D04348B0F9161033
:100E600046A0FFF741FE4048B0F910003E49B1F9F5
:100E70001810884205D03C48B0F9101043A0FFF785
:100E800033FE3948B0F912003749B1F91A108842D7
:100E900005D03548B0F9121040A0FFF725FE3248C2
:100EA000007818B141A0FFF71FFE59E02E484078A6
:100EB00018B145A0FFF718FE52E02B48807818B112
:100EC00049A0FFF711FE4BE02748C07818B14DA0AC
:100ED000FFF70AFE44E02448007A18B150A0FFF75B
:100EE00003FE3DE02048407A18B154A0FFF7FCFD16
:100EF00036E01D48007918B156A0FFF7F5FD2FE048
:100F00001948407918B15AA0FFF7EEFD28E01648BD
:100F1000807918B15EA0FFF7E7FD21E01248C079A3
:100F200018B163A0FFF7E0FD1AE00F48C07A18B1CE
:100F300067A0FFF7D9FD13E00B48407B18B16BA009
:100F4000FFF7D2FD0CE00848807A18B16EA0FFF7D9
:100F5000CBFD05E00448007B10B172A0FFF7C4FD93
:100F600010BD000004000020E20000200D0A206CEB
:100F70006566745F783A2564090000000D0A206CEC
:100F80006566745F793A2564090000000D0A2072D5
:100F9000696768745F783A25640900000D0A207259
:100FA000696768745F793A25640900005053325FBD
:100FB0004C4546545F5550206973207072657373B9
:100FC0006564210D0A0000005053325F4C454654C1
:100FD0005F52494748542069732070726573736586
:100FE00064210D0A000000005053325F4C45465406
:100FF0005F444F574E206973207072657373656448
:10100000210D0A005053325F4C4546545F4C454613
:10101000542069732070726573736564210D0A0032
:101020005053325F53454C454354206973207072CE
:101030006573736564210D0A000000005053325F30
:101040005354415254206973207072657373656400
:10105000210D0A005053325F52494748545F5550A2
:101060002069732070726573736564210D0A000036
:101070005053325F52494748545F524947485420C1
:1010800069732070726573736564210D0A00000036
:101090005053325F52494748545F444F574E20697E
:1010A000732070726573736564210D0A000000007F
:1010B0005053325F52494748545F4C45465420696B
:1010C000732070726573736564210D0A000000005F
:1010D0005053325F4C4546545F3220697320707222
:1010E0006573736564210D0A000000005053325F80
:1010F00052494748545F3220697320707265737398
:101100006564210D0A0000005053325F4C4546547F
:101110005F312069732070726573736564210D0AF5
:10112000000000005053325F52494748545F31205D
:1011300069732070726573736564210D0A00000085
:1011400010B5002419E020210D48FFF7B5F84FF441
:1011500000510B48FFF7AEF8642000F04FF8202153
:101160000748FFF7A7F84FF400510548FFF7A4F828
:10117000642000F043F8601CC4B2032CE3DB10BD14
:10118000000C014010B54FF4E13000F0C1FA10BD81
:1011900010B50648008800F4004030B10020034933
:1011A0000880034903A0FFF79FFC10BD1600002034
:1011B000440000207265636569766564206F6B206A
:1011C0007375636365737321203D2025730D0A00D9
:1011D00008B501210820FFF7C5F82020ADF8000070
:1011E00010208DF8030003208DF8020069460248A4
:1011F000FEF7C3FF08BD0000000C014070B50446B7
:1012000000F0ECF8054608E000F0E8F8A84204D247
:10121000C5F1FF30201A84B2002500F0DFF8401B32
:10122000A042F1D370BD002106E00A2100BF0A1ED2
:10123000A1F1010399B2FAD1021EA0F1010398B203
:10124000F3D1704700BF054A128802F04002002A1D
:10125000F9D0C2B2014B1B1D1A8070470038014003
:1012600008B501210420FFF77DF84FF48070ADF838
:10127000000048208DF8030003208DF80200694625
:101280000548FEF77AFF4FF40060ADF800006946AC
:101290000148FEF772FF08BD0008014010B54FF489
:1012A00080713148FEF7F4FFE0B930480088401CF7
:1012B0002E4908802E48007830B908460088052855
:1012C00002DD01202A49087029480078012818D138
:1012D00026480088C82814DD0220254908702549C1
:1012E00008700EE022480078012802D121490870D8
:1012F00002E000201F49087000201D4908701B49AA
:1013000008804FF400611848FEF7C2FFE0B91A48A0
:101310000088401C184908801848007830B90846F1
:101320000088052802DD0120144908701348007860
:10133000012818D110480088C82814DD02200F4960
:1013400008700F4908700EE00C480078012802D19F
:101350000B49087002E00020094908700020074985
:1013600008700549088010BD0008014012000020E7
:10137000100000200E0000201400002011000020AA
:101380000F00002008B501210820FEF7EBFF4FF405
:101390000050ADF8000010208DF8030003208DF8F8
:1013A000020069460148FEF7E8FE08BD000C014056
:1013B00000F07EF9FFF7C0F9FFF792FCFFF7E2FEBD
:1013C000FFF71AFDFFF7BCFE07E0FFF7F5FCFFF79C
:1013D0009BFCFFF7DDFEFFF713FDF6E70148006811
:1013E000704700000800002008B501211820FEF712
:1013F000B9FF1020ADF8000028208DF8030003206D
:101400008DF8020069461748FEF7B7FE2020ADF8B8
:10141000000010208DF8030003208DF802006946BB
:101420001048FEF7AAFE4020ADF8000069460D48BE
:10143000FEF7A3FE8020ADF8000069460948FEF7DC
:101440009CFE012240210748FEF738FF012280213F
:101450000448FEF733FF012220210248FEF72EFF49
:1014600008BD0000000C01402DE9F04105462F4663
:101470000026002427E00120A04000EA07022021E6
:101480001348FEF71BFF012280211148FEF716FFCB
:101490000620FFF7C8FE002280210D48FEF70EFF50
:1014A0000620FFF7C0FE012280210948FEF706FF53
:1014B00010210748FEF7ECFE18B10120A040304390
:1014C000C6B2601CC4B2082CD5DB3046BDE8F08142
:1014D000000C014010B5002240217248FEF7EEFEDC
:1014E0000120FFF7C1FF704908704220FFF7BCFFE1
:1014F0006D4948700878FFF7B7FF6B498870087826
:10150000FFF7B2FF6849C8700878FFF7ADFF66497A
:1015100008710878FFF7A8FF634948710878FFF75A
:10152000A3FF614988710878FFF79EFF5E49C87183
:101530000878FFF799FF5C49087201224021594859
:10154000FEF7BCFE58480078FF2808D1564880783E
:101550005A2804D10120554981F8200003E00020D9
:10156000524981F82000514890F8200000287DD091
:101570004D484078412803D100204C49887302E04F
:1015800001204A4988734948807BE0B14748808AF6
:10159000464988830846C08AC8830846008A08836B
:1015A0000846408A4883404840797F3808823E4850
:1015B0008079803848823C48C0797F3888823A48B0
:1015C000007A8038C8823848C078012121EA10109A
:1015D000364908703448C078012121EA5010334957
:1015E00048703148C078012121EA90102F49887055
:1015F0002D48C078012121EAD0102C49C8702A4812
:101600000079012121EA1010284908712648007943
:10161000012121EA50102549487123480079012110
:1016200021EAD0102149C8711F480079012121EA1F
:1016300090101E4988711C480079012121EA900010
:101640001A4988721848007900F0010080F0010002
:10165000C87215480079012121EAD00013490873A6
:1016600011480079012121EA500000E018E00F49FB
:1016700048730D48C07800F0010080F00100087246
:101680000948C078012121EAD000084948720024A5
:1016900004E0002004490855601CC4B2082CF8DDA1
:1016A00010BD0000000C0140D8000020E200002026
:1016B00010B5FEF777FE4FF48030FEF735FFFEF7EA
:1016C00091FF044600BF002CFDD00020FEF720FF54
:1016D0004FF48060FEF74EFF0020FEF757FF4FF4F7
:1016E000E0114FF48030FEF763FF0120FEF75AFF50
:1016F00000BF3920FEF7E6FE0028FAD00220FEF7F0
:1017000065FF00BFFEF7FCFE0828FBD110BD0000FE
:1017100010B586B00446012144F20400FEF722FE13
:101720002848FFF7CFF84FF40070ADF804001820F8
:101730008DF8070003208DF8060001A92248FEF766
:101740001CFD4FF48060ADF8040004208DF8070004
:1017500003208DF8060001A91B48FEF70EFD029438
:101760000020ADF80C00ADF80E00ADF810000C2014
:10177000ADF812000020ADF8140002A91148FFF7DF
:101780003FF925208DF8000001208DF80100002090
:101790008DF8020001208DF803006846FEF798FDE1
:1017A000012240F225510748FFF704F9002240F2D8
:1017B00027710448FFF7FEF801210248FFF775F88A
:1017C00006B010BD0038014000080140EC170008C9
:1017D0000000002044000000080B0008301800083A
:1017E00044000020C4040000180B000800000000A2
:1017F00000000000000000000000000000000000E9
:1018000000000000000000000102030401020304C4
:10181000060708090204060800A24A0400000000A6
:101820000000000001020304060708090000000090
:0400000508000101ED
:00000001FF
